S01F000045454554323235365F4D616A6F7250726F6A6563745F432E7372656342
S11300000C942A000C943F000C943F000C943F0085
S11300100C943F000C943F000C943F000C943F0060
S11300200C943F000C943F000C943F000C943F0050
S11300300C943F000C943F000C943F000C943F0040
S11300400C943F000C943F000C943F000C943F0030
S11300500C943F0011241FBECFE5D8E0DEBFCDBF16
S113006012E0A0E6B0E0E0E1FEE002C005900D92EF
S1130070AA3EB107D9F70E9415010C9406070C9407
S1130080000010BC8DE489B986E880BD88E18AB996
S113009008955D9BFECF8CB90895CF93DF9300D074
S11300A000D0CDB7DEB71A82198229813A81281788
S11300B03907E8F41C821B822B813C812D323140AC
S11300C058F42B813C812F5F3F4F3C832B832B8142
S11300D03C812D323140A8F329813A812F5F3F4F73
S11300E03A83298329813A812817390718F30F9015
S11300F00F900F900F90DF91CF910895CF93DF93DE
S1130100EC018881882359F0219690E00E944900EF
S113011086E990E00E944D0089918111F6CFDF912C
S1130120CF910895EF92FF920F931F93CF93DF9394
S113013000D01F92CDB7DEB71B820F2EFBEFEF2E40
S1130140F02D0F2EFEEFFF2EF02D0FEE11E02AC042
S1130150E5BA84E190E00E944D0095B383B398170B
S113016029F083B390E09A8389831B83F5BA84E1F1
S113017090E00E944D0095B383B3981729F083B3A0
S113018090E09A8389831B8305BB84E190E00E94FD
S11301904D0095B383B3981729F083B390E09A8305
S11301A089831B838B81882399F289819A810F909B
S11301B00F900F90DF91CF911F910F91FF90EF90CF
S11301C00895CF93DF93CDB7DEB7C258D1090FB6E8
S11301D0F894DEBF0FBECDBF20E8E0E6F0E0DE011C
S11301E0119601900D922A95E1F7880F991FE1E08D
S11301F0F0E0EC0FFD1FE80FF91F80819181CF57CC
S1130200DF4F99838883C158D040CF57DF4F88810F
S11302109981C158D040CE57DF4F0FB6F894DEBF56
S11302200FBECDBFDF91CF910895CF93DF93CDB7AC
S1130230DEB7C452D2400FB6F894DEBF0FBECDBFB6
S113024080E092E0E0EEF0E0DE01599601900D923C
S11302500197E1F785E184BB8AEE85BB0E944100EA
S11302608CE090E00E94490086E990E00E944D00F5
S113027080E890E00E94490086E990E00E944D00E9
S11302800F2EF6EEEF2EF2E0FF2EF02D8E010B5E18
S11302901F4F0E9492009A838983E981FA81EE0FAD
S11302A0FF1F81E090E08C0F9D1FE80FF91F808DE8
S11302B0918D9C838B838B819C810E94490088EE65
S11302C093E00E944D008B819C810E94E1009C87F9
S11302D08B871A8219820E9492009A838983E9810A
S11302E0FA81EE0FFF1F81E090E08C0F9D1FE80F55
S11302F0F91F808D918D9E838D838D819E810E94B7
S1130300490088EE93E00E944D008D819E810E94F9
S1130310E1009E878D872D853E858B859C85AC016C
S1130320440F551F880F991F880F991F880F991F15
S1130330840F951F820F931FCF5DDD4F99838883B0
S1130340C152D240CF5DDD4F88819981C152D240E4
S1130350988B8F871C821B821C861B861E821D82A3
S11303601E861D861A8219820E9492009A838983AE
S1130370E981FA81EE0FFF1F81E090E08C0F9D1F51
S1130380E80FF91F808D918D9C838B838B819C81D9
S11303900E94490088EE93E00E944D008B819C816D
S11303A00E94E1009C878B871A8219820E94920026
S11303B09A838983E981FA81EE0FFF1F81E090E03F
S11303C08C0F9D1FE80FF91F808D918D9E838D8367
S11303D08D819E810E94490088EE93E00E944D0029
S11303E08D819E810E94E1009E878D872D853E85AB
S11303F08B859C85AC01440F551F880F991F880F6E
S1130400991F880F991F840F951F820F931FCD5D2D
S1130410DD4F99838883C352D240CD5DDD4F8881FF
S11304209981C352D2409A8B898B8F85988984365F
S113043091052CF489899A8984369105ACF081E27E
S113044090E00E94490086E990E00E944D0080EE11
S113045092E00E947E0081E290E00E94490086E9D9
S113046090E00E944D0083C10E9492009A83898388
S1130470E981FA81EE0FFF1F81E090E08C0F9D1F50
S1130480E80FF91F808D918D98878F838F819885D0
S11304900E94490088EE93E00E944D008F81988568
S11304A08A9709F0A8C00E9492009A838983E981FF
S11304B0FA81EE0FFF1F81E090E08C0F9D1FE80F83
S11304C0F91F808D918D9A87898789859A850E94E5
S11304D0490088EE93E00E944D0089859A858A97A9
S11304E0B1F58DE390E00E94490086E990E00E9416
S11304F04D0029893A898F859889C15EDD4F19821B
S11305001882CF51D240820F931FC15EDD4F998371
S11305108883CF51D240C15EDD4F88819981CF510C
S1130520D2409C8B8B8B8B899C899F938F93FF925A
S1130530EF921F930F930E941C04C8010E947E0037
S11305400F900F900F900F900F900F9010C189850E
S11305509A858397D9F58DE390E00E94490086E956
S113056090E00E944D0049895A892F853889C35EDD
S1130570DD4F19821882CD51D240429FC001439F62
S1130580900D529F900D1124C35EDD4F9983888393
S1130590CD51D240C35EDD4F88819981CD51D24087
S11305A09C8B8B8B8B899C899F938F93FF92EF926B
S11305B01F930F930E941C04C8010E947E000F9099
S11305C00F900F900F900F900F90D1C081E290E0A8
S11305D00E94490086E990E00E944D0080EE92E07E
S11305E00E947E0081E290E00E94490086E990E04A
S11305F00E944D00BCC08F819885839709F0A3C0E9
S11306000E9492009A838983E981FA81EE0FFF1F89
S113061081E090E08C0F9D1FE80FF91F808D918D74
S11306209A87898789859A850E94490088EE93E094
S11306300E944D0089859A858397B1F58DE390E0FA
S11306400E94490086E990E00E944D0029893A8978
S11306508F859889C55EDD4F19821882CB51D240AF
S1130660821B930BC55EDD4F99838883CB51D240A7
S1130670C55EDD4F88819981CB51D2409C8B8B8B99
S11306808B899C899F938F93FF92EF921F930F9373
S11306900E941C04C8010E947E000F900F900F90CE
S11306A00F900F900F9063C089859A858A97B1F552
S11306B08DE390E00E94490086E990E00E944D009D
S11306C069897A898F859889C75EDD4F1982188276
S11306D0C951D2400E94F403C75EDD4F7983688319
S11306E0C951D240C75EDD4F88819981C951D2403A
S11306F09C8B8B8B8B899C899F938F93FF92EF921A
S11307001F930F930E941C04C8010E947E000F9047
S11307100F900F900F900F900F9029C081E290E0FE
S11307200E94490086E990E00E944D0080EE92E02C
S11307300E947E0081E290E00E94490086E990E0F8
S11307400E944D0014C081E290E00E94490086E9B5
S113075090E00E944D0080EE92E00E947E0081E2D3
S113076090E00E94490086E990E00E944D001886BE
S11307701F820E9492009A838983E981FA81EE0F95
S1130780FF1F81E090E08C0F9D1FE80FF91F808D03
S1130790918D98878F838F819885839741F78CE01B
S11307A090E00E94490086E990E00E944D0080E8B4
S11307B090E00E94490086E990E00E944D001C826E
S11307C01B821C861B86188A1F861E821D821E861B
S11307D01D861A8A198A18861F821A8619861A8211
S11307E019821C8A1B8A55CD97FB072E16F4009498
S11307F007D077FD09D00E94080407FC05D03EF419
S1130800909581959F4F0895709561957F4F0895B8
S1130810AA1BBB1B51E107C0AA1FBB1FA617B70722
S113082010F0A61BB70B881F991F5A95A9F780953E
S11308309095BC01CD010895AEE0B0E0E2E2F4E0B1
S11308400C94DD060D891E8986E08C831A83098346
S11308508FEF9FE79E838D83AE01475E5F4F6F8965
S1130860788DCE0101960E943E04EF81F885E00F59
S1130870F11F10822E96E4E00C94F906ABE0B0E090
S1130880E4E4F4E00C94CF066C017B018A01FC01E2
S113089017821682838181FFCCC1CE0101963C016F
S11308A0F6019381F70193FD859193FF81917F0177
S11308B0882309F4BAC1853239F493FD859193FFF5
S11308C081917F01853229F4B60190E00E943506BA
S11308D0E7CF912C212C312CFFE1F315D8F08B328A
S11308E079F038F4803279F08332A1F4232D206139
S11308F01DC08D3261F0803369F4232D216016C050
S1130900832D8260382EE32DE4603E2E2AC0F32D21
S1130910F8601DC037FC2DC020ED280F2A3040F0B0
S11309208E32B9F436FC81C1232D2064322E19C0D5
S113093036FE06C08AE0989E200D1124922E11C026
S1130940EAE02E9E200D1124222EF32DF0623F2E7C
S113095008C08C3621F4832D8068382E02C0883676
S113096041F4F70193FD859193FF81917F018111FA
S1130970B3CF982F9F7D9554933028F40C5F1F4F6D
S11309809FE399830DC0833631F0833771F083354B
S113099009F059C021C0F801808189830E5F1F4F7F
S11309A088248394912C530113C02801F2E04F0E44
S11309B0511CF801A080B18036FE03C0692D70E09F
S11309C002C06FEF7FEFC5010E942A064C0182012D
S11309D0F32DFF773F2E16C0280122E0420E511C52
S11309E0F801A080B18036FE03C0692D70E002C01A
S11309F06FEF7FEFC5010E941F064C01F32DF068D5
S1130A003F2E820133FC1BC0822D90E0881699068C
S1130A10B0F4B60180E290E00E9435062A94F4CF47
S1130A20F50137FC859137FE81915F01B60190E0B5
S1130A300E94350621102A9421E0821A910881141B
S1130A40910471F7E8C0843611F0893641F5F80154
S1130A5037FE07C060817181828193810C5F1F4FD3
S1130A6008C060817181072E000C880B990B0E5F02
S1130A701F4FF32DFF763F2E97FF09C09095809569
S1130A80709561957F4F8F4F9F4FF0683F2E2AE0FE
S1130A9030E0A3010E947106882E861845C0853770
S1130AA031F4232D2F7EB22E2AE030E025C0932D81
S1130AB0997FB92E8F36C1F018F4883579F0B5C016
S1130AC0803719F0883721F0B0C0E92FE061BE2EDD
S1130AD0B4FE0DC0FB2DF460BF2E09C034FE0AC065
S1130AE0292F2660B22E06C028E030E005C020E1A0
S1130AF030E002C020E132E0F801B7FE07C06081B7
S1130B007181828193810C5F1F4F06C06081718166
S1130B1080E090E00E5F1F4FA3010E947106882EB3
S1130B208618FB2DFF773F2E36FE0DC0232D2E7F1A
S1130B30A22E891458F434FE0BC032FC09C0832D54
S1130B408E7EA82E05C0B82CA32C03C0B82C01C0DF
S1130B50B92CA4FE0FC0FE01E80DF11D8081803385
S1130B6021F49A2D997EA92E09C0A2FE06C0B39441
S1130B70B39404C08A2D867809F0B394A3FC11C001
S1130B80A0FE06C0B21488F4280C922C9B180EC048
S1130B90B21460F4B60180E290E00E943506B3948A
S1130BA0F7CFB21418F42B1802C0982C212CA4FEF1
S1130BB010C0B60180E390E00E943506A2FE17C083
S1130BC0A1FC03C088E790E002C088E590E0B6018C
S1130BD00CC08A2D867859F0A1FE02C08BE201C0B8
S1130BE080E2A7FC8DE2B60190E00E9435068914EC
S1130BF038F4B60180E390E00E9435069A94F7CF6A
S1130C008A94F301E80DF11D8081B60190E00E9401
S1130C1035068110F5CF222009F442CEB60180E2D8
S1130C2090E00E9435062A94F6CFF60186819781DA
S1130C3002C08FEF9FEF2B96E2E10C94EB06FC01D0
S1130C400590615070400110D8F7809590958E0FF3
S1130C509F1F0895FC016150704001900110D8F766
S1130C60809590958E0F9F1F08950F931F93CF9398
S1130C70DF93FB01238121FD03C08FEF9FEF2CC085
S1130C8022FF16C0468157812481358142175307BC
S1130C9044F4A081B1819D012F5F3F4F31832083B4
S1130CA08C93268137812F5F3F4F3783268314C06F
S1130CB08B01EC01FB010084F185E02D0995892B62
S1130CC0E1F6D80116968D919C9117970196179687
S1130CD09C938E931697CE01DF91CF911F910F9124
S1130CE00895FA01AA27283051F1203181F1E894BE
S1130CF06F936E7F6E5F7F4F8F4F9F4FAF4FB1E00B
S1130D003ED0B4E03CD0670F781F891F9A1FA11D05
S1130D10680F791F8A1F911DA11D6A0F711D811D06
S1130D20911DA11D20D009F468943F912AE0269FCB
S1130D3011243019305D3193DEF6CF010895462F2A
S1130D404770405D4193B3E00FD0C9F7F6CF462F0B
S1130D504F70405D4A3318F0495D31FD4052419374
S1130D6002D0A9F7EACFB4E0A69597958795779531
S1130D706795BA95C9F700976105710508959B01B8
S1130D80AC010A2E06945795479537952795BA9541
S1130D90C9F7620F731F841F951FA01D08952F921A
S1130DA03F924F925F926F927F928F929F92AF92F7
S1130DB0BF92CF92DF92EF92FF920F931F93CF9344
S1130DC0DF93CDB7DEB7CA1BDB0B0FB6F894DEBFDB
S1130DD00FBECDBF09942A88398848885F846E8401
S1130DE07D848C849B84AA84B984C884DF80EE804B
S1130DF0FD800C811B81AA81B981CE0FD11D0FB654
S1130E00F894DEBF0FBECDBFED010895F894FFCF77
S1130E10FF00FF00FF00FF00FF00FF00FF00FF00D6
S1130E20FF00FF00FF00FF00FF00FF00FF00FF00C6
S1130E30FF00FF00FF00FF00FF00FF00FF00FF00B6
S1130E40FF00FF00FF00FF00FF00FF00FF00FF00A6
S1130E50FF00FF00FF00FF00FF00FF00FF00FF0096
S1130E60FF00FF00FF00FF00FF00FF00FF00FF0086
S1130E700000010002000300040005000600070052
S1130E8008000900FF00FF00FF00FF00FF00FF0053
S1130E903F003F003F003F003F003F003F003F0056
S1130EA03F003F003F003F003F003F003F003F0046
S1130EB03F003F003F003F003F003F003F003F0036
S1130EC03F003F003F003F003F003F003F003F0026
S1130ED03F003F003F003F003F003F003F003F0016
S1130EE03F003F003F003F003F003F003F003F0006
S1130EF03F003F003F003F003F003F003F003F00F6
S1130F003F003F003F003F003F003F003F003F00E5
S1130F103F003F003F003F003F003F003F003F00D5
S1130F203F003F003F003F003F003F003F003F00C5
S1130F303F003F003F003F003F003F003F003F00B5
S1130F403F003F003F003F003F003F003F003F00A5
S1130F503F003F003F003F003F003F003F003F0095
S1130F603F003F003F003F003F003F003F003F0085
S1130F703F003F003F003F003F003F003F003F0075
S1130F803F003F003F003F003F003F003F003F0065
S1130F903F003F003F003F003F003F003F003F0055
S1130FA03F003F003F003F003F003F003F003F0045
S1130FB03F003F003F003F003F003F003F003F0035
S1130FC03F003F003F003F003F003F003F003F0025
S1130FD03F003F003F003F003F003F003F003F0015
S1130FE03F003F003F003F003F003F003F0036000E
S1130FF03F003F003F003F003F003F003F003F00F5
S11310003F003F003F0034003F003F0035003F00F9
S11310103F003F003F003F003F003F003F003F00D4
S11310203F003F003F003F003F003F003F003900CA
S11310303F003F003F003F003F003F003F003F00B4
S11310403F003F003F0037003F003F0038003F00B3
S11310503F003F003F003F003F003F003F002300B0
S11310603F003F003F003F003F0033003F003F0090
S11310703F003F003F002A003F003F0030003F0098
S11310803F0031003F003F0032003F003F003F007F
S10D10904552524F5200256400003F
S9030000FC
