:020000020000FC
:1000000010C0189518951895189518951895189565
:100010001895189518951895189518951895189578
:10002000189508E00EBF0FE50DBF0E9489000E94E1
:1000300099000E94BA00632F0E9495000E94DC0183
:100040000E94EA006F920E948A010E94BA00632F08
:100050000E9495000E94DC010E94EA006F920E94BB
:100060008A014F903F900E94F2003F923324442433
:100070000E94BA00632F0E9495000E94DC010E943A
:10008000EA006F920E948A010E94BA00632F0E94C8
:1000900095000E94DC010E94EA006F920E948A0192
:1000A0004F903F900E94F2003F928F902F910E94BC
:1000B000BA00632F0E9495000E94DC013A3221F0C1
:1000C000333281F03A3219F533270E94BA00632F98
:1000D0000E9495000E94DC013A3289F0333299F097
:1000E0003A32A9F40E94BA00632F0E9495000E9440
:1000F000DC01333231F03A3241F03A3241F40C94BF
:10010000FE000C9402010C9408010C9413010C9451
:100110008D0100270DE400BC09B9002706E800BDE9
:10012000002708E10AB9002708955D9BFECF6CB94E
:1001300008953324442422278824002400274427B8
:100140005527332766247724662753E60FEF07BB2E
:1001500005E104BB0AEE05BB6CE00E9495000E941D
:10016000DC0160E80E9495000E94DC0108BA0E9450
:10017000DC010895112733270C94DE000BEF05BB3B
:100180000E94CB011124222413B225B21214C9F407
:100190000EEF05BB0E94CB011124222413B225B21D
:1001A000121479F40FEE05BB0E94CB011124222416
:1001B00013B225B2121429F40C94DE001030F1F2BF
:1001C0000895F3E0EAECE10D0024F01D349111E014
:1001D0000C94DE006624F4E0EAECE30F0024F01D4A
:1001E000649008950E94F600340C08954427552425
:1001F000532C4395350C4930E1F708954427280DD9
:100200000E942501442728192030ECF00E94250186
:1002100044275524522E4395250D98F043954815B3
:10022000D9F70E9425014427281920303CF0439536
:10023000281508F0F9CF242F0E94250122270E94BB
:1002400025010C94B3010C94A3012A3030F024361C
:1002500098F02F3F68F10C948D0100272F930E9496
:10026000DC016DE30E9495000F910E948201672DD1
:100270000E9495000C94C301002744272A504395FF
:100280002A3008F0FBCF2F934F930E94DC016DE3DF
:100290000E9495000F910E948201672D0E94950097
:1002A0000F910E948201672D0E9495000C94C3015A
:1002B000002744272A5043952A3008F0FBCF2F937C
:1002C000242F44272A5043952A3008F0FBCF2F9340
:1002D0004F930E94DC016DE30E9495000F910E94F4
:1002E0008201672D0E9495000F910E948201672D67
:1002F0000E9495000F910E948201672D0E94950037
:100300000C94C3017724F5E0EAE0E00F0024F01D2F
:1003100074900895561508F0089561E20E949500C2
:1003200065E40E94950062E50E94950062E50E94E6
:1003300095006FE40E94950062E50E94950061E2DD
:100340000E94950020C061E20E9495006EE40E9428
:10035000950065E40E94950067E40E94950061E2C3
:100360000E94950010C06DE30E94950062E30E9418
:10037000950065E30E94950065E30E9495006BE29D
:100380000E94950000C033270E94BA00333209F062
:10039000FACF0C9411000F934F930F920024002773
:1003A00044270A950011FDCF00274A954011F9CF47
:1003B0000F904F910F910895442700244BE04A95E8
:1003C0000E94CB014011FBCF08953F3F3F3F3F3F8D
:1003D0003F3F3F3F3F3F3F3F3F3F3F3F3F3F3F3F2D
:1003E0003F3F3F3F3F3F3F3F3F3F3F3F3F3F3F3F1D
:1003F0003F3F3F3F3F3F3F3F3F3F3F3F3F3F3F3F0D
:100400003F3F3F3F3F3F3F3F3F3F3F3F3F3F3F3FFC
:100410003F3F3F3F3F3F3F3F3F3F3F3F3F3F3F3FEC
:100420003F3F3F3F3F3F3F3F3F3F3F3F3F3F3F3FDC
:100430003F3F3F3F3F3F3F3F3F3F3F3F3F3F3F3FCC
:100440003F3F3F3F3F3F3F3F3F3F3F3F3F3F3F3FBC
:100450003F3F3F3F3F3F3F3F3F3F3F3F3F3F3F3FAC
:100460003F3F3F3F3F3F3F3F3F3F3F3F3F3F3F3F9C
:100470003F3F3F3F3F3F3F3F3F363F3F3F3F3F3F95
:100480003F3F3F3F3F343F3F353F3F3F3F3F3F3F91
:100490003F3F3F3F3F3F3F3F3F393F3F3F3F3F3F72
:1004A0003F3F3F3F3F373F3F383F3F3F3F3F3F3F6B
:1004B0003F233F3F3F3F3F333F3F3F3F3F2A3F3F89
:1004C000303F3F313F3F323F3F3F64646464646488
:1004D00064646464646464646464646464646464DC
:1004E00064646464646464646464646464646464CC
:1004F0006464646464646464646400010203040505
:100500000607080964646464646430313233343546
:040510003637383909
:00000001FF
